{
  "address": "0xe7f1725E7734CE288F8367e1Bb143E90bb3F0512",
  "abi": [
    {
      "inputs": [
        {
          "internalType": "address",
          "name": "priceFeedAddress",
          "type": "address"
        }
      ],
      "stateMutability": "nonpayable",
      "type": "constructor"
    },
    {
      "inputs": [],
      "name": "FundMe__NotOwner",
      "type": "error"
    },
    {
      "stateMutability": "payable",
      "type": "fallback"
    },
    {
      "inputs": [
        {
          "internalType": "address",
          "name": "",
          "type": "address"
        }
      ],
      "name": "addressToAmountFunded",
      "outputs": [
        {
          "internalType": "uint256",
          "name": "",
          "type": "uint256"
        }
      ],
      "stateMutability": "view",
      "type": "function"
    },
    {
      "inputs": [],
      "name": "fund",
      "outputs": [],
      "stateMutability": "payable",
      "type": "function"
    },
    {
      "inputs": [
        {
          "internalType": "uint256",
          "name": "",
          "type": "uint256"
        }
      ],
      "name": "funders",
      "outputs": [
        {
          "internalType": "address",
          "name": "",
          "type": "address"
        }
      ],
      "stateMutability": "view",
      "type": "function"
    },
    {
      "inputs": [],
      "name": "minimumUSD",
      "outputs": [
        {
          "internalType": "uint256",
          "name": "",
          "type": "uint256"
        }
      ],
      "stateMutability": "view",
      "type": "function"
    },
    {
      "inputs": [],
      "name": "owner",
      "outputs": [
        {
          "internalType": "address",
          "name": "",
          "type": "address"
        }
      ],
      "stateMutability": "view",
      "type": "function"
    },
    {
      "inputs": [],
      "name": "priceFeed",
      "outputs": [
        {
          "internalType": "contract AggregatorV3Interface",
          "name": "",
          "type": "address"
        }
      ],
      "stateMutability": "view",
      "type": "function"
    },
    {
      "inputs": [],
      "name": "withdraw",
      "outputs": [],
      "stateMutability": "payable",
      "type": "function"
    },
    {
      "stateMutability": "payable",
      "type": "receive"
    }
  ],
  "transactionHash": "0x39999d8dada42d2afa6cc5ff17f3bf6f618d306f383e37378347f5dbd32c6aab",
  "args": [
    "0x5FbDB2315678afecb367f032d93F642f64180aa3"
  ],
  "numDeployments": 1,
  "solcInputHash": "aa5052a0578c4f6490e42fb933085e0d",
  "bytecode": "0x60a06040526802b5e3af16b188000060025534801561001d57600080fd5b5060405162000fda38038062000fda83398181016040528101906100419190610122565b3373ffffffffffffffffffffffffffffffffffffffff1660808173ffffffffffffffffffffffffffffffffffffffff1660601b8152505080600360006101000a81548173ffffffffffffffffffffffffffffffffffffffff021916908373ffffffffffffffffffffffffffffffffffffffff1602179055505061014f565b600080fd5b600073ffffffffffffffffffffffffffffffffffffffff82169050919050565b60006100ef826100c4565b9050919050565b6100ff816100e4565b811461010a57600080fd5b50565b60008151905061011c816100f6565b92915050565b600060208284031215610138576101376100bf565b5b60006101468482850161010d565b91505092915050565b60805160601c610e6562000175600039600081816102d801526105560152610e656000f3fe6080604052600436106100745760003560e01c8063741bef1a1161004e578063741bef1a146100ff5780638da5cb5b1461012a578063b60d428814610155578063dc0d3dff1461015f57610083565b80633430a88c1461008d5780633ccfd60b146100b85780633e47d6f3146100c257610083565b366100835761008161019c565b005b61008b61019c565b005b34801561009957600080fd5b506100a26102d0565b6040516100af9190610753565b60405180910390f35b6100c06102d6565b005b3480156100ce57600080fd5b506100e960048036038101906100e491906107d1565b610516565b6040516100f69190610753565b60405180910390f35b34801561010b57600080fd5b5061011461052e565b604051610121919061085d565b60405180910390f35b34801561013657600080fd5b5061013f610554565b60405161014c9190610887565b60405180910390f35b61015d61019c565b005b34801561016b57600080fd5b50610186600480360381019061018191906108ce565b610578565b6040516101939190610887565b60405180910390f35b6002546101d4600360009054906101000a900473ffffffffffffffffffffffffffffffffffffffff16346105b790919063ffffffff16565b1015610215576040517f08c379a000000000000000000000000000000000000000000000000000000000815260040161020c90610958565b60405180910390fd5b6000339080600181540180825580915050600190039060005260206000200160009091909190916101000a81548173ffffffffffffffffffffffffffffffffffffffff021916908373ffffffffffffffffffffffffffffffffffffffff16021790555034600160003373ffffffffffffffffffffffffffffffffffffffff1673ffffffffffffffffffffffffffffffffffffffff16815260200190815260200160002060008282546102c791906109a7565b92505081905550565b60025481565b7f000000000000000000000000000000000000000000000000000000000000000073ffffffffffffffffffffffffffffffffffffffff163373ffffffffffffffffffffffffffffffffffffffff161461035b576040517f579610db00000000000000000000000000000000000000000000000000000000815260040160405180910390fd5b60005b6000805490508110156104065760008082815481106103805761037f6109fd565b5b9060005260206000200160009054906101000a900473ffffffffffffffffffffffffffffffffffffffff1690506000600160008373ffffffffffffffffffffffffffffffffffffffff1673ffffffffffffffffffffffffffffffffffffffff168152602001908152602001600020819055505080806103fe90610a2c565b91505061035e565b50600067ffffffffffffffff81111561042257610421610a75565b5b6040519080825280602002602001820160405280156104505781602001602082028036833780820191505090505b5060009080519060200190610466929190610693565b5060003373ffffffffffffffffffffffffffffffffffffffff164760405161048d90610ad5565b60006040518083038185875af1925050503d80600081146104ca576040519150601f19603f3d011682016040523d82523d6000602084013e6104cf565b606091505b5050905080610513576040517f08c379a000000000000000000000000000000000000000000000000000000000815260040161050a90610b36565b60405180910390fd5b50565b60016020528060005260406000206000915090505481565b600360009054906101000a900473ffffffffffffffffffffffffffffffffffffffff1681565b7f000000000000000000000000000000000000000000000000000000000000000081565b6000818154811061058857600080fd5b906000526020600020016000915054906101000a900473ffffffffffffffffffffffffffffffffffffffff1681565b6000806105c3836105f3565b90506000670de0b6b3a764000085836105dc9190610b56565b6105e69190610bdf565b9050809250505092915050565b6000808273ffffffffffffffffffffffffffffffffffffffff1663feaf968c6040518163ffffffff1660e01b815260040160a06040518083038186803b15801561063c57600080fd5b505afa158015610650573d6000803e3d6000fd5b505050506040513d601f19601f820116820180604052508101906106749190610c9d565b5050509150506402540be4008161068b9190610d18565b915050919050565b82805482825590600052602060002090810192821561070c579160200282015b8281111561070b5782518260006101000a81548173ffffffffffffffffffffffffffffffffffffffff021916908373ffffffffffffffffffffffffffffffffffffffff160217905550916020019190600101906106b3565b5b509050610719919061071d565b5090565b5b8082111561073657600081600090555060010161071e565b5090565b6000819050919050565b61074d8161073a565b82525050565b60006020820190506107686000830184610744565b92915050565b600080fd5b600073ffffffffffffffffffffffffffffffffffffffff82169050919050565b600061079e82610773565b9050919050565b6107ae81610793565b81146107b957600080fd5b50565b6000813590506107cb816107a5565b92915050565b6000602082840312156107e7576107e661076e565b5b60006107f5848285016107bc565b91505092915050565b6000819050919050565b600061082361081e61081984610773565b6107fe565b610773565b9050919050565b600061083582610808565b9050919050565b60006108478261082a565b9050919050565b6108578161083c565b82525050565b6000602082019050610872600083018461084e565b92915050565b61088181610793565b82525050565b600060208201905061089c6000830184610878565b92915050565b6108ab8161073a565b81146108b657600080fd5b50565b6000813590506108c8816108a2565b92915050565b6000602082840312156108e4576108e361076e565b5b60006108f2848285016108b9565b91505092915050565b600082825260208201905092915050565b7f4469646e27742073656e6420656e6f7567680000000000000000000000000000600082015250565b60006109426012836108fb565b915061094d8261090c565b602082019050919050565b6000602082019050818103600083015261097181610935565b9050919050565b7f4e487b7100000000000000000000000000000000000000000000000000000000600052601160045260246000fd5b60006109b28261073a565b91506109bd8361073a565b9250827fffffffffffffffffffffffffffffffffffffffffffffffffffffffffffffffff038211156109f2576109f1610978565b5b828201905092915050565b7f4e487b7100000000000000000000000000000000000000000000000000000000600052603260045260246000fd5b6000610a378261073a565b91507fffffffffffffffffffffffffffffffffffffffffffffffffffffffffffffffff821415610a6a57610a69610978565b5b600182019050919050565b7f4e487b7100000000000000000000000000000000000000000000000000000000600052604160045260246000fd5b600081905092915050565b50565b6000610abf600083610aa4565b9150610aca82610aaf565b600082019050919050565b6000610ae082610ab2565b9150819050919050565b7f43616c6c206661696c6564000000000000000000000000000000000000000000600082015250565b6000610b20600b836108fb565b9150610b2b82610aea565b602082019050919050565b60006020820190508181036000830152610b4f81610b13565b9050919050565b6000610b618261073a565b9150610b6c8361073a565b9250817fffffffffffffffffffffffffffffffffffffffffffffffffffffffffffffffff0483118215151615610ba557610ba4610978565b5b828202905092915050565b7f4e487b7100000000000000000000000000000000000000000000000000000000600052601260045260246000fd5b6000610bea8261073a565b9150610bf58361073a565b925082610c0557610c04610bb0565b5b828204905092915050565b600069ffffffffffffffffffff82169050919050565b610c2f81610c10565b8114610c3a57600080fd5b50565b600081519050610c4c81610c26565b92915050565b6000819050919050565b610c6581610c52565b8114610c7057600080fd5b50565b600081519050610c8281610c5c565b92915050565b600081519050610c97816108a2565b92915050565b600080600080600060a08688031215610cb957610cb861076e565b5b6000610cc788828901610c3d565b9550506020610cd888828901610c73565b9450506040610ce988828901610c88565b9350506060610cfa88828901610c88565b9250506080610d0b88828901610c3d565b9150509295509295909350565b6000610d2382610c52565b9150610d2e83610c52565b9250827f7fffffffffffffffffffffffffffffffffffffffffffffffffffffffffffffff0482116000841360008413161615610d6d57610d6c610978565b5b817f80000000000000000000000000000000000000000000000000000000000000000583126000841260008413161615610daa57610da9610978565b5b827f80000000000000000000000000000000000000000000000000000000000000000582126000841360008412161615610de757610de6610978565b5b827f7fffffffffffffffffffffffffffffffffffffffffffffffffffffffffffffff0582126000841260008412161615610e2457610e23610978565b5b82820290509291505056fea2646970667358221220974c66c84af43f22454a1ff281b3f58765f2b62bdce26ed81f6544f2f1c5620a64736f6c63430008080033",
  "devdoc": {
    "kind": "dev",
    "methods": {},
    "version": 1
  },
  "userdoc": {
    "kind": "user",
    "methods": {},
    "version": 1
  },
  "storageLayout": {
    "storage": [
      {
        "astId": 57,
        "contract": "contracts/FundMe.sol:FundMe",
        "label": "funders",
        "offset": 0,
        "slot": "0",
        "type": "t_array(t_address)dyn_storage"
      },
      {
        "astId": 61,
        "contract": "contracts/FundMe.sol:FundMe",
        "label": "addressToAmountFunded",
        "offset": 0,
        "slot": "1",
        "type": "t_mapping(t_address,t_uint256)"
      },
      {
        "astId": 70,
        "contract": "contracts/FundMe.sol:FundMe",
        "label": "minimumUSD",
        "offset": 0,
        "slot": "2",
        "type": "t_uint256"
      },
      {
        "astId": 73,
        "contract": "contracts/FundMe.sol:FundMe",
        "label": "priceFeed",
        "offset": 0,
        "slot": "3",
        "type": "t_contract(AggregatorV3Interface)45"
      }
    ],
    "types": {
      "t_address": {
        "encoding": "inplace",
        "label": "address",
        "numberOfBytes": "20"
      },
      "t_array(t_address)dyn_storage": {
        "base": "t_address",
        "encoding": "dynamic_array",
        "label": "address[]",
        "numberOfBytes": "32"
      },
      "t_contract(AggregatorV3Interface)45": {
        "encoding": "inplace",
        "label": "contract AggregatorV3Interface",
        "numberOfBytes": "20"
      },
      "t_mapping(t_address,t_uint256)": {
        "encoding": "mapping",
        "key": "t_address",
        "label": "mapping(address => uint256)",
        "numberOfBytes": "32",
        "value": "t_uint256"
      },
      "t_uint256": {
        "encoding": "inplace",
        "label": "uint256",
        "numberOfBytes": "32"
      }
    }
  }
}